:030000000200C239
:0C00C200787FE4F6D8FD75812002005321
:0E00B40055617274205465737420210D0A008A
:03002300020026B2
:10002600C0E0C0D075D000C000C007309904C299A6
:10003600C20030980FC298AF090509740A2FF8A6B6
:0D0046009953090FD007D000D0D0D0E03280
:1000A00075985075D7E675D6FF758E15E4F509F588
:0400B00008C2002260
:0800CE002000FDD2008F9922F1
:10007B008B1A8A1B891CAB1AAA1BA91C12000360C2
:10008B0013051CE51C7002051B14F9120003FF126B
:05009B0000CE80E2220E
:100053001200A0D2ACD2AF7BFF7A0079B412007B3E
:10006300E508650960FAAF080508740A2FF8E6FF8A
:080073001200CE53080F80E8D3
:10000300BB010689828A83E0225002E722BBFE02FB
:09001300E32289828A83E493222E
:00000001FF
