:03000000020518DE
:0C051800787FE4F6D8FD75813C020359A1
:1004AD0055617274205465737420210D0A004E6FCE
:0904BD002046696E64210D0A005D
:100359001204DAD2ACD2AF7BFF7A0479AD1204264B
:100369007FF47E011200031203C8E4FF12044BEF6D
:1003790064E5600B7BFF7A0479BB120426800612C0
:0E03890003971202E57F5E7E0112000380D909
:0A053B002D002000583A000D0A00C0
:10026700AB07AA067C277D10120204EF2430F5267F
:100277007C277D10AF03AE02120204AA04AB057CF3
:10028700037DE8AF03AE02120204EF2430F5217CB0
:10029700037DE8AF03AE02120204AA04AB057C009B
:1002A7007D64AF03AE02120204EF2430F5227C0016
:1002B7007D64AF03AE02120204AA04AB057C007D85
:1002C7000AAF03AE02120204EF2430F5257C007D4D
:0E02D7000AAF03AE02120204ED2430F5272216
:10000300E4FDFCC3ED9FEC9E5015E4FBFA0BBB0033
:0F001300010AEB64794A70F50DBD00010C80E421
:0100220022BB
:04054D007F12DFFE3C
:010551002287
:0A05300000007F4E7EE9DEFEDFFCD6
:01053A00229E
:0F04EE00D290D29112054DC29012054DC29122AB
:0C052400C290D29112054DD29002054DFC
:0E04FD00A2019290D29112054DC29102054DBE
:0D050B00D29112054DA290C29112054D2211
:05046D001204EE7FA661
:02047200AE07D3
:10047400E4FDEE25E0FE9290D29112054DC2911258
:09048400054D0DBD08EC02050B4D
:10048D00E4FED290FDEE25E0FED29112054DA29034
:0F049D00E4334206C29112054D0DBD08E8AF06CB
:0104AC00222D
:1004C600AC05AB0712046DAF03120472AF0412043D
:0404D6007202052485
:02044B00AC07FC
:10044D0012046DAF041204721204EE7FA71204722F
:0F045D0012048DAE07D2011204FD120524AF0662
:01046C00226D
:1003970012046D7F321204721204EE7FA7120472E8
:1003A700E4FC12048D74282CF8A607BC0504D201BE
:1003B7008002C2011204FD0CBC06E71205240205E7
:0103C7003005
:1003C8007D0B7F311204C67D087F2C1204C67D0880
:1003D8007F2D1204C67D807F2E1204C6E4FD7F1E89
:1003E8001204C6E4FD7F1F1204C67D057F200204A7
:0103F800C63E
:1002E500E529FE7C00E42528F524EC3EF523C364CE
:1002F5008094805013C3E49524F524E49523F523D5
:100305007BFF7A05793B80067BFF7A05793D1204F0
:1003150026AC23AD24EC1201317B9A7A9979797850
:100325004012002612016A12026785213075312EAE
:100335008522328525337534207BFF7A05793F1276
:1003450004267B007A0079301204267BFF7A057932
:040355004202042636
:030023000203F9DC
:1003F900C0E0C0D075D000C000C007309904C299D0
:10040900C20030980FC298AF090509740A2FF8A6DF
:0D0419009953090FD007D000D0D0D0E032A9
:1004DA0075985075D7E675D6FF758E15E4F509F54A
:0404EA0008C2002222
:080545002000FDD2008F992275
:100426008B3A8A3B893CAB3AAA3BA93C1201EB606A
:1004360013053CE53C7002053B14F91201EBFF1273
:05044600054580E222E3
:10002600EC4D6011E8497017ED33EC3304600DE4D4
:10003600FCFFFEFD22E933E8330470F80201D61214
:1000460001A158046009E4CC248150062850090215
:1000560001E02840030201DDC0E0EB4A7044B980AC
:1000660006D0E0FB0201CCEF4E701CBD8008EBFF12
:10007600EAFEE9FD80EBE98DF0A4FEE5F002010F52
:10008600E9CDF9EAFEEBFFEF89F0A4FCE5F0CE89B5
:10009600F0A42EFFE435F0CD89F0A42DFEE435F072
:1000A6008067EF4E7005BD80D780C3EF8BF0A4ACA0
:1000B600F0EE8BF0A42CFCE435F0F8EF8AF0A42CDB
:1000C600E5F038FCE433CB8DF0A42CFCE5F03BF8EE
:1000D600EE8AF0A42CFCE5F038F8E433CF89F0A4DE
:1000E6002CFCE5F038CF3400CE89F0A42FFFE5F0E4
:1000F6003EFEE433C98DF0A42EFEE5F039CD8AF03C
:10010600A42FFFE5F03EFEE43DFD33D0E0FB5007B3
:100116000BBB000F0201E0EC2CFCEF33FFEE33FECD
:06012600ED33FD0201B8FB
:10012C0075F020800E75F010800575F0087D007E4E
:10013C00007F003392D530D503120259EC334010B6
:10014C00EF33FFEE33FEED33FDEC33FCD5F0ED2257
:0E015C00E5F0247EA2D513CC92E7CDCEFF2293
:10016A00EDD2E7CD33EC3392D524814006E4FFFE8D
:10017A00FDFC22FCE4CFCECDCC24E0501174FF80EC
:10018A00EDC3CC13CCCD13CDCE13CECF13CF047089
:07019A00F030D5DE0202592E
:1001A100E9D2E7C933E833F892D5EDD2E7CD33ECA4
:0701B10033FC5002B2D5221D
:1001B800EC30E7100FBF000C0EBE00080DBD0004A8
:1001C8000BEB6014A2D5EB13FCED92E7FD2274FF54
:1001D800FCFDFEFF22E480F8A2D574FF13FC7D80AD
:0301E800E480EFC1
:1001EB00BB010689828A83E0225002E722BBFE0212
:0901FB00E32289828A83E4932245
:10020400BC000BBE0029EF8DF084FFADF022E4CCDE
:10021400F875F008EF2FFFEE33FEEC33FCEE9DECA7
:10022400984005FCEE9DFE0FD5F0E9E4CEFD22EDED
:10023400F8F5F0EE8420D21CFEADF075F008EF2F37
:10024400FFED33FD4007985006D5F0F222C398FD28
:050254000FD5F0EA22C5
:0E025900C3E49FFFE49EFEE49DFDE49CFC22B6
:00000001FF
