:10031500AC0AAD0BEC12010E7B9A7A99797978408B
:0603250012000312014763
:10032B00AB07AA067C277D101201C8EF2430F50D10
:10033B007C277D10AF03AE021201C8AA04AB057C6B
:10034B00037DE8AF03AE021201C8EF2430F5087C41
:10035B00037DE8AF03AE021201C8AA04AB057C0013
:10036B007D64AF03AE021201C8EF2430F5097C00A7
:10037B007D64AF03AE021201C8AA04AB057C007DFD
:10038B000AAF03AE021201C8EF2430F50C7C007DDE
:0E039B000AAF03AE021201C8ED2430F50E22A7
:1005AC00E4FDFCC3ED9FEC9E5015E4FBFA0BBB0085
:0F05BC00010AEB64794A70F50DBD00010C80E473
:0105CB00220D
:1006560075A0FFC283D28200D2810000E5A020E708
:04066600FBC2812230
:10064100ED6003120656C283C282008FA000D281E0
:050651000000C281223F
:10066A00120656D283C282008FA000D2810000C235
:02067A008122DB
:100626007D017F381206417F081206417F011206BE
:0B063600417F061206417F0C020641C6
:1004F6007B41E4FDFF12052F7B44E4FD7F011205DD
:100506002F7B58E4FD7F0212052F7B4CE4FD7F0311
:1005160012052F7B33E4FD7F0412052F0BE4FD7FCC
:090526000512052F0BE4FD7F0610
:10052F00AE07AC0353050153060FED6003430640BE
:0F053F00430680AF06E4FD120641AF0402066AD0
:0D06BA000000000000000000000000002211
:0E068E007F307E02EF1FAC0670011E4C70F62E
:01069C00223B
:0F069D00D287D2861206BAC2871206BAC2862246
:0C06D400C287D2861206BAD2870206BA8C
:0E06AC00A2009287D2861206BAC2860206BA51
:0D06C700D2861206BAA287C2861206BA2297
:0505CC0012069D7FA650
:1005D100E4FEEF25E0FF9287D2861206BAC28612A8
:0905E10006BA0EBE08EC0206C7C2
:1005EA00E4FFD287FEEF25E0FFD2861206BAA28781
:0D05FA00E4334207C2861206BA0EBE08E8BE
:0106070022D0
:10067C00AC071205CCAF041205D1AF051205D1029F
:02068C0006D492
:02060800AD073C
:10060A001205CCAF051205D112069D7FA71205D19E
:0B061A001205EAD2001206AC1206D452
:0106250022B2
:10054E001205CC7F321205D112069D7FA71205D15E
:10055E00E4FD1205EA740F2DF8A607BD0504D200BE
:10056E008002C2001206AC0DBD06E71206D40206CA
:01057E008EEE
:10057F007D0B7F3112067C7D087F2C12067C7F2D30
:10058F0012067C7D807F2E12067CE4FD7F1E1206F4
:0D059F007C7F1F12067C7D057F2002067CFC
:1003A900E510FE7C00E4250FF50BEC3EF50AC3646D
:1003B900809480500FC3E4950BF50BE4950AF50A78
:1003C9007B2D80027B20E4FD7F0A12052F12031585
:1003D9007B58E4FD7F0812052F7B3AE4FD7F091263
:1003E900052FAB08E4FD7F0B12052F7B2EE4FD7F63
:1003F9000C12052FAB09E4FD7F0D12052FAB0CE4A0
:0F040900FD7F0E12052F7B20E4FD7F0F02052FD4
:10041800E512FE7C00E42511F50BEC3EF50AC364F9
:10042800809480500FC3E4950BF50BE4950AF50A08
:100438007B2D80027B207D017F0212052F12031580
:100448007B597D01E4FF12052F7B3A7D017F011264
:10045800052FAB087D017F0312052F7B2E7D017FC1
:100468000412052FAB097D017F0512052FAB0C7D0A
:0F047800017F0612052F7B207D017F0702052FD4
:10048700E514FE7C00E42513F50BEC3EF50AC36486
:10049700809480500FC3E4950BF50BE4950AF50A99
:1004A7007B2D80027B207D017F0A12052F12031509
:1004B7007B5A7D017F0812052F7B3A7D017F091248
:1004C700052FAB087D017F0B12052F7B2E7D017F4A
:1004D7000C12052FAB097D017F0D12052FAB0C7D8B
:0F04E700017F0E12052F7B207D017F0F02052F55
:10022B007FF47E011205AC1206261204F61204F6B8
:10023B0012057FE4FF120608EF64E570030202FF6C
:10024B007B4EE4FD7F0812052F7B6FE4FD7F0912C7
:10025B00052F7B20E4FD7F0A12052F7B46E4FD7FF3
:10026B000B12052F7B69E4FD7F0C12052F7B6EE4CF
:10027B00FD7F0D12052F7B64E4FD7F0E12052F7B96
:10028B0021E4FD7F0F12052F1B7D01E4FF12052FCB
:10029B007D017F0112052F7D017F0212052F7D014C
:1002AB007F0312052F7D017F0412052F7D017F0532
:1002BB0012052F7D017F0612052F7D017F07120589
:1002CB002F7D017F0812052F7D017F0912052F7DE0
:1002DB00017F0B12052F7D017F0C12052F7D017FF6
:1002EB000D12052F7D017F0E12052F7D017F0F1241
:1002FB00052F800C12054E1203A912041812048745
:0A030B007F5E7E011205AC0202388D
:10000300EC4D6011E8497017ED33EC3304600DE4F7
:10001300FCFFFEFD22E933E8330470F80201B3125A
:10002300017E58046009E4CC24815006285009025B
:1000330001BD2840030201BAC0E0EB4A7044B98015
:1000430006D0E0FB0201A9EF4E701CBD8008EBFF58
:10005300EAFEE9FD80EBE98DF0A4FEE5F00200EC99
:10006300E9CDF9EAFEEBFFEF89F0A4FCE5F0CE89D8
:10007300F0A42EFFE435F0CD89F0A42DFEE435F095
:100083008067EF4E7005BD80D780C3EF8BF0A4ACC3
:10009300F0EE8BF0A42CFCE435F0F8EF8AF0A42CFE
:1000A300E5F038FCE433CB8DF0A42CFCE5F03BF811
:1000B300EE8AF0A42CFCE5F038F8E433CF89F0A401
:1000C3002CFCE5F038CF3400CE89F0A42FFFE5F007
:1000D3003EFEE433C98DF0A42EFEE5F039CD8AF05F
:1000E300A42FFFE5F03EFEE43DFD33D0E0FB5007D7
:1000F3000BBB000F0201BDEC2CFCEF33FFEE33FE14
:06010300ED33FD02019541
:1001090075F020800E75F010800575F0087D007E71
:10011900007F003392D530D50312021DEC33401015
:10012900EF33FFEE33FEED33FDEC33FCD5F0ED227A
:0E013900E5F0247EA2D513CC92E7CDCEFF22B6
:10014700EDD2E7CD33EC3392D524814006E4FFFEB0
:10015700FDFC22FCE4CFCECDCC24E0501174FF800F
:10016700EDC3CC13CCCD13CDCE13CECF13CF0470AC
:07017700F030D5DE02021D8D
:10017E00E9D2E7C933E833F892D5EDD2E7CD33ECC7
:07018E0033FC5002B2D52240
:10019500EC30E7100FBF000C0EBE00080DBD0004CB
:1001A5000BEB6014A2D5EB13FCED92E7FD2274FF77
:1001B500FCFDFEFF22E480F8A2D574FF13FC7D80D0
:0301C500E480EFE4
:030000000206E015
:0C06E000787FE4F6D8FD75812002022B23
:1001C800BC000BBE0029EF8DF084FFADF022E4CC1B
:1001D800F875F008EF2FFFEE33FEEC33FCEE9DECE4
:1001E800984005FCEE9DFE0FD5F0E9E4CEFD22ED2A
:1001F800F8F5F0EE8420D21CFEADF075F008EF2F74
:10020800FFED33FD4007985006D5F0F222C398FD64
:050218000FD5F0EA2201
:0E021D00C3E49FFFE49EFEE49DFDE49CFC22F2
:00000001FF
